:100000000C9446000C9465000C9465000C946500FB
:100010000C9465000C9465000C9465000C946500CC
:100020000C9465000C9465000C9465000C946500BC
:100030000C9465000C947A020C9465000C94650095
:100040000C9465000C9465000C9465000C9465009C
:100050000C9465000C9465000C9465000C9465008C
:100060000C9465000C9465000C9465000C9465007C
:100070000C9465000C9465000C9465000C9465006C
:100080000C9465000C9465000C94650011241FBE4F
:10009000CFEFD0E4DEBFCDBF12E0A0E0B1E0E0E7FB
:1000A000F7E100E00BBF02C007900D92A438B10742
:1000B000D9F713E0A4E8B2E001C01D92AE30B10759
:1000C000E1F70E94EE070C94B60B0C940000181692
:1000D00019065CF00895000021503040E1F74F5FB1
:1000E0005F4F4817590729F4089540E050E067E052
:1000F00073E09B01F0CF289A8BB9299A00002998C8
:1001000081E090E00E946700089528988BB9299AB1
:100110000000299882E090E00E94670008958131F4
:1001200020F481580E948500089581550E94850021
:1001300008951F93CF93DF93EB019881992311F4D6
:100140000BC0812F182F1F5F0E948F0089910E9482
:100150007B0088818823A9F7DF91CF911F910895B3
:1001600081E00E948500089584E690E00E94670087
:1001700088E30E94850086E00E9485008FE00E944F
:10018000850081E00E9485008AE090E00E9467007F
:100190000895442351F041E050E09A0102C0220F3B
:1001A000331F6A95E2F7822B089521E030E0A90120
:1001B00002C0440F551F6A95E2F7BA016095862385
:1001C000089590E002C0959587956A95E2F7817051
:1001D0000895EF92FF920F931F93E22EF32E042FB8
:1001E000152F04C0EB2EFA2E0F2F1E2F2E2D3F2D74
:1001F000402F512F0E94E80A9B01AC016E2D7F2DEC
:10020000802F912FB22FA32FF42FE52F2115310529
:100210004105510539F71F910F91FF90EF90089517
:10022000EAE7F0E08081806E808308958FEE88B9E0
:10023000000086B160E00E94E100882309F46DC0EF
:1002400086B161E00E94E100882309F468C086B1AC
:1002500062E00E94E100882309F463C086B163E094
:100260000E94E100882309F45EC08FED88B9000088
:1002700086B160E00E94E100882309F456C086B18F
:1002800061E00E94E100882309F451C086B162E078
:100290000E94E100882309F44CC086B163E00E940B
:1002A000E100882309F447C08FEB88B9000086B1CC
:1002B00060E00E94E100882309F43FC086B161E05C
:1002C0000E94E1008823D9F186B162E00E94E1003A
:1002D0008823B9F186B163E00E94E100882399F197
:1002E0008FE788B9000086B160E00E94E1008823B2
:1002F00061F186B161E00E94E100882341F186B19D
:1003000062E00E94E100882321F186B163E00E944F
:10031000E100882301F584E4089581E3089584E3EE
:10032000089587E308958AE2089582E3089585E3B6
:10033000089588E3089580E3089583E3089586E3AC
:10034000089589E3089583E2089581E4089582E49D
:10035000089583E4089580E00895CF92DF92EF92AC
:10036000FF921F936B017C012091C8023091C9025A
:100370004091CA025091CB020E945C09882309F483
:100380005CC011E0C701B60120E030E0A9010E9485
:100390005C09882309F410E0112331F4E1E9F0E06D
:1003A00080818870808305C0E1E9F0E0808183600E
:1003B0008083C701B60128E539E344E75FE30E9483
:1003C0005C0988233CF48FEF9FEF90939900809312
:1003D000980027C0C701B60120E034E244EF56E49C
:1003E0000E946E0A18162CF4109299001092980030
:1003F00018C0C701B60120E030E040E053E40E949D
:10040000720A9B01AC0160E074E284EF9AE40E94FE
:1004100060090E94C8096150704070939900609310
:1004200098001092950010929400C092C802D09249
:10043000C902E092CA02F092CB021F91FF90EF90A6
:10044000DF90CF900895809191028130A1F4E091E6
:100450009A02F0E0EE0FFF1FEE0FFF1FE753FE4F73
:1004600060817181828193810E94AD0180919A02A5
:100470008F5F80939A0280E090E0089580E48093FB
:1004800090008BE08093910060E070E0CB010E94CF
:10049000AD010895109290001092910008958BE0A4
:1004A000809381008DE790E090938900809388008D
:1004B00082E080936F0010928500109284008091FA
:1004C000830190918401A0918501B0918601809370
:1004D000850290938602A0938702B09388028FB71B
:1004E00080688FBF089510928100089581E0809305
:1004F000840208951F920F920FB60F920BB60F92BF
:1005000011242F933F934F935F936F937F938F9318
:100510009F93AF93BF93EF93FF9380918502909148
:100520008602A0918702B09188020197A109B109C2
:100530008093850290938602A0938702B0938802ED
:100540000097A105B10591F40E9476028091830184
:1005500090918401A0918501B091860180938502DC
:1005600090938602A0938702B0938802FF91EF9147
:10057000BF91AF919F918F917F916F915F914F91BB
:100580003F912F910F900BBE0F900FBE0F901F90B9
:1005900018956093830170938401809385019093F3
:1005A0008601609385027093860280938702909300
:1005B000880208950E946C0B60E170E00E94D50AE9
:1005C0008F5F0895AF92BF92CF92DF92EF92FF922A
:1005D0000F931F93CF93DF939C0182309105B1F16C
:1005E000833091053CF4009789F08130910509F042
:1005F00057C117C08430910571F1843091050CF416
:100600005BC08530910509F04BC12BC080919202EF
:10061000813009F045C180919102882309F44CC0D2
:100620003FC180919102813021F483E08093880161
:1006300037C190918B0280918801981709F46FC09F
:1006400080919502882309F013C136C080919502EC
:100650008823B9F118C180919502882309F45FC0FD
:1006600089C080919502882309F084C025C010922A
:100670008E0210928D02809188018823C1F0C0E023
:10068000D0E00CED12E00E94DA02C00FD11F888387
:10069000C0918D02D0918E022196D0938E02C0938C
:1006A0008D028091880190E0C817D90764F387E034
:1006B00088B920E030E0E7C01092960221E030E0F7
:1006C000E2C090918B02ECEDF2E0E90FF11D808128
:1006D000209187018217B1F420918801921790F43C
:1006E0000E948F008EE50E947B0080918701805FD1
:1006F0000E948F0080918B028F5F80938B0223E09A
:1007000030E0C1C080919202813009F0B4C0809184
:100710006E02815080936E0223E030E0B4C080917D
:100720009402882369F481E060E071E00E949900FE
:1007300081E162E171E00E94990081E0809394027E
:10074000E0919902E03108F099C0F0E0EE0FFF1F50
:10075000EE0FFF1FE75FFD4F608171818281938102
:100760000E94AD01809199028F5F8093990224E0ED
:1007700030E089C080919602882309F082C00E94EF
:10078000B00081E063E271E00E94990080918701EE
:10079000805F0E948F0010928B02809188018F5F92
:1007A0008093880180939B0210928E0210928D029A
:1007B0008823C1F0C0E0D0E00CED12E00E94DA0224
:1007C000C00FD11F8883C0918D02D0918E022196D7
:1007D000D0938E02C0938D028091880190E0C8175B
:1007E000D90764F360916F02709170028091710279
:1007F0009091720220E030E040EA52E40E94F70853
:10080000D62EC72EB82EA92EE0907302F090740257
:100810000091750210917602A80197010E946E0A5C
:100820001816E4F48D2D9C2DAB2DBA2D80936F02FC
:1008300090937002A0937102B0937202C801B70145
:1008400020E030E048EC51E40E94F8086093730225
:1008500070937402809375029093760281E0809386
:100860009602109299021092940225E030E00BC09B
:1008700022E030E008C023E030E005C024E030E0B2
:1008800002C025E030E0822F932FDF91CF911F919E
:100890000F91FF90EF90DF90CF90BF90AF900895B1
:1008A00080919102882309F4E2CE20E030E0EBCF82
:1008B000861797070CF4E4C09C01992314F4215F78
:1008C0003F4F35952795359527953595279535953E
:1008D0002795AC01421B530B461757070CF4D2C0A7
:1008E000A901440F551FFC01E41BF50BE617F707A0
:1008F0000CF4CAC0A901440F551F420F531FFC013D
:10090000E41BF50BE617F7070CF4C0C0A901440F70
:10091000551F440F551FFC01E41BF50BE617F707A5
:100920000CF4B6C0A901440F551F440F551F420FC8
:10093000531FFC01E41BF50BE617F7070CF4AAC0E4
:10094000A901440F551F420F531F440F551FFC01AF
:10095000E41BF50BE617F7070CF49EC0A901440F42
:10096000551F440F551F440F551FF901E41BF50B8C
:10097000AF01480F591F461757070CF48FC0A90144
:10098000440F551F440F551F440F551FFC01E41B16
:10099000F50BE617F7070CF483C0A901440F551FA8
:1009A000440F551F440F551F420F531FFC01E41BFA
:1009B000F50BE617F7070CF475C0F901EE0FFF1FF2
:1009C000A901440F551F440F551F440F551F4E0FCB
:1009D0005F1FFC01E41BF50BE617F7070CF464C07E
:1009E000E5EFFFEF2E9FA0012F9F500D3E9F500D72
:1009F0001124480F591F461757070CF457C0A90177
:100A0000440F551F420F531F440F551F440F551FCE
:100A1000FC01E41BF50BE617F7070CF449C0E3EF04
:100A2000FFEF2E9FA0012F9F500D3E9F500D1124D0
:100A3000480F591F46175707ECF1A901440F551FDE
:100A4000FA01EE0FFF1FEE0FFF1FEE0FFF1F4E1BF1
:100A50005F0B480F591F4617570774F1E1EFFFEF7F
:100A60002E9FA0012F9F500D3E9F500D11249A01E3
:100A7000280F391F81E026173707FCF080E0089522
:100A800080E108958FE008958EE008958DE0089547
:100A90008CE008958BE008958AE0089589E0089538
:100AA00088E0089587E0089586E0089585E0089538
:100AB00084E0089583E0089582E00895813128F06C
:100AC0008EEB90E00E94580408958F3028F084EE59
:100AD00090E00E94580408958B3028F080E791E060
:100AE0000E9458040895873028F08EEB90E00E9411
:100AF00058040895833028F080E192E00E94580461
:100B0000089581E008959C01009729F081309105B6
:100B100009F079C00BC080919202813009F078C051
:100B200080919102882309F476C072C020917800E8
:100B30003091790020938F02309390028091880148
:100B4000622F732F0E945E0580938701809191022E
:100B5000813009F060C05AC087E088B90EC0823089
:100B600019F486E088B909C0813019F484E088B9A5
:100B700004C018B881E08093910280918701909120
:100B80008A028917C1F1282F30E0291B31092F5F14
:100B90003F4F2330310528F090916E029150909391
:100BA0006E02805F0E948F008091870180938A028D
:100BB00090918B02ECEDF2E0E90FF11D9081891725
:100BC00069F460916F02709170028091710290914E
:100BD00072020E94AD0121E030E01AC06091730200
:100BE0007091740280917502909176020E94AD011D
:100BF00021E030E00DC060E070E0CB010E94AD016B
:100C000021E030E005C020E030E002C020E030E02C
:100C1000822F932F089580916E02833009F09FCF29
:100C20009BCF833029F481E390E00E947B000895FC
:100C3000843029F482E390E00E947B00089585309F
:100C400029F483E390E00E947B000895863029F424
:100C500084E390E00E947B000895873029F485E3C7
:100C600090E00E947B000895883029F486E390E0AC
:100C70000E947B000895893029F487E390E00E9468
:100C80007B0008958A3029F488E390E00E947B007D
:100C900008958B3029F489E390E00E947B00089549
:100CA0008C3039F481E190E064E371E00E949900B6
:100CB00008958D3039F481E190E06DE371E00E9498
:100CC000990008958E3039F481E190E066E471E096
:100CD0000E94990008958F3039F481E190E06FE42B
:100CE00071E00E9499000895803139F481E190E02B
:100CF00068E571E00E949900089581E190E061E665
:100D000071E00E9499000895803111F18F3011F146
:100D10008E3011F18D3011F18C3011F18B3011F1D9
:100D20008A3011F1893011F1883011F1873011F1D9
:100D3000863011F1853011F1843011F1833011F1D9
:100D4000823011F1813011F1882311F585E1089588
:100D500080E108958FE008958EE008958DE0089574
:100D60008CE008958BE008958AE0089589E0089565
:100D700088E0089587E0089586E0089585E0089565
:100D800084E0089583E0089582E0089581E0089565
:100D90008FE10895109291021092920210929302A4
:100DA000109294021092950210929602109297025D
:100DB000109298021092990210929A0283E0809306
:100DC0006E021092890291E09093870110928A023C
:100DD0008093880110928B0210928C0280E090E048
:100DE000ACEDB3E480936F0290937002A093710214
:100DF000B093720280E090E0A8ECB1E480937302BB
:100E000090937402A0937502B09376020E94B00092
:100E10000895EF92FF921F93CF93DF939C0181304F
:100E2000910599F0823091051CF4009741F024C09F
:100E30008230910581F083309105F1F416C08091E4
:100E40009502882309F0ACC017C0809195028823D1
:100E500009F46DC0B0C080919202882369F080913E
:100E60009102813009F063C078C080919A0280318C
:100E700008F477C00E94CA06A0918C020F2EFCECE9
:100E8000EF2EF2E0FF2EF02D9701205F3F4FF7018C
:100E900049E452E060E070E0B1E0A63228F48A2F25
:100EA00090E0019742F002C0CB01AB2F840F951F59
:100EB000EC01888180833196E217F30711F0AF5F70
:100EC000ECCF11E0812F0E948F00F70181917F010B
:100ED0000E947B001F5F1131A9F780918C028F5F08
:100EE00080938C02853211F410928C02E09198026A
:100EF000E031C0F483E080939B02F0E0EE0FFF1F2F
:100F0000EE0FFF1FE757FE4F608171818281938151
:100F10000E94AD01809198028F5F8093980220E03B
:100F200030E049C01092980220E030E044C0809147
:100F300093028823C1F581E063E271E00E94990089
:100F400081E10E948F0081E08093920210929102D1
:100F50008093930222E030E02EC080919A0280318B
:100F600028F58FE188B980919702882311F50E94B6
:100F7000B00081E062E771E00E94990081E16CE7D6
:100F800071E00E94990087E10E948F0080919B028E
:100F90000E94110681E08093970223E030E00BC0AD
:100FA00021E030E008C022E030E005C023E030E07E
:100FB00002C023E030E0822F932FDF91CF911F9169
:100FC000FF90EF9008950E94C9020E944F020E9474
:100FD00010010E943E020E94B4000895AF92BF9299
:100FE000CF92DF92EF92FF920F931F93DF93CF93F5
:100FF000CDB7DEB728970FB6F894DEBF0FBECDBFD2
:1010000011B88FEF82B993EF94B99CE095B987B985
:1010100018B88AB91BB864EF71E080E090E022E371
:1010200030E040E050E00E94E90022E330E040E0A0
:1010300050E00E94E90024EF31E040E050E00E94DF
:10104000E9007B018C0164EF71E080E090E0A80191
:1010500097010E94E80AC22EA32ED42EB52E62E379
:1010600070E080E090E0A80197010E94E80A722FEA
:10107000632F342F252FDE011196E7E7F2E088E099
:1010800001900D928150E1F78DEB92E04FEF40938C
:10109000BD02FC013196C092BE02A182D282B3820F
:1010A000FC013596C092C202A182D282B38289E04D
:1010B00097E09093C7028093C60282EB92E0409340
:1010C000B202FC0131967093B302618332832383B1
:1010D000FC0135967093B70261833283238383E8E2
:1010E00095E09093BC028093BB0287EA92E0409324
:1010F000A702FC0131967093A80261833283238397
:10110000FC0135967093AC0261833283238382EEB7
:1011100092E09093B1028093B002ECE9F2E0409348
:101120009C02DF011196C0929D021196AC9211971C
:101130001296DC9212971396BC923596C092A10239
:10114000A182D282B38283E292E09093A60280933E
:10115000A502C801B7010E94E3075E010894A11C23
:10116000B11C0F2EF9E0CF2EDD24F02DCC0EDD1EAC
:1011700080B1809561E00E94E10080939502750145
:10118000D7010D911D917D01F8012581368147819F
:10119000508581819281A381B481281739074A073C
:1011A0005B0779F480810184F285E02D992787FD22
:1011B00090950995D8018C93F801158216821782B3
:1011C0001086F80185819681A781B0850196A11DC1
:1011D000B11D85839683A783B087EC14FD0481F647
:1011E000809184028823E1F310928402C1CF505889
:1011F000BB27AA270ED038C129D130F02ED120F03C
:1012000031F49F3F11F41EF41EC10EF4E095E7FB8C
:1012100014C1E92F3AD180F3BA1762077307840724
:10122000950718F071F49EF552C10EF4E0950B2E5F
:10123000BA2FA02D0B01B90190010C01CA01A00128
:101240001124FF27591B99F0593F50F4503E68F183
:101250001A16F040A22F232F342F4427585FF3CFC4
:10126000469537952795A795F0405395C9F77EF495
:101270001F16BA0B620B730B840BBAF09150A1F0DE
:10128000FF0FBB1F661F771F881FC2F70EC0BA0F64
:10129000621F731F841F48F4879577956795B795EC
:1012A000F7959E3F08F0B3CF9395880F08F09927E4
:1012B000EE0F9795879508959CD008F481E00895E6
:1012C0000CD0D2C0CAD040F0C1D030F021F45F3F82
:1012D00019F0B3C05111FCC0B6C0D7D098F3992310
:1012E000C9F35523B1F3951B550BBB27AA276217EA
:1012F0007307840738F09F5F5F4F220F331F441F2F
:10130000AA1FA9F333D00E2E3AF0E0E830D0915066
:101310005040E695001CCAF729D0FE2F27D0660F53
:10132000771F881FBB1F261737074807AB07B0E892
:1013300009F0BB0B802DBF01FF2793585F4F2AF0A8
:101340009E3F510568F079C0C3C05F3FECF3983E03
:10135000DCF3869577956795B795F7959F5FC9F705
:10136000880F911D9695879597F90895E1E0660F8E
:10137000771F881FBB1F621773078407BA0720F007
:10138000621B730B840BBA0BEE1F88F7E095089570
:1013900004D06894B1119CC008957FD088F09F5705
:1013A00090F0B92F9927B751A0F0D1F0660F771FB1
:1013B000881F991F1AF0BA95C9F712C0B13081F091
:1013C00086D0B1E0089583C0672F782F8827B85F53
:1013D00039F0B93FCCF3869577956795B395D9F7F2
:1013E0003EF490958095709561957F4F8F4F9F4FFC
:1013F0000895990F0008550FAA0BE0E8FEEF1616A6
:101400001706E807F907C0F012161306E407F507F8
:1014100098F0621B730B840B950B39F40A2661F06C
:10142000232B242B252B21F408950A2609F4A1400F
:10143000A6958FEF811D811D089597F99F6780E81C
:1014400070E060E008959FEF80EC089500240A9416
:101450001616170618060906089500240A9412168F
:101460001306140605060895092E0394000C11F4C2
:10147000882352F0BB0F40F4BF2B11F460FF04C06F
:101480006F5F7F4F8F4F9F4F089557FD9058440FC8
:10149000551F59F05F3F71F04795880F97FB991FD3
:1014A00061F09F3F79F08795089512161306140690
:1014B000551FF2CF4695F1DF08C01616170618061D
:1014C000991FF1CF86957105610508940895E894F8
:1014D000BB2766277727CB0197F908958ADF08F4A1
:1014E0008FEF08950BD0C0CFB1DF28F0B6DF18F032
:1014F000952309F0A2CFA7CF1124EACFC6DFA0F32E
:10150000959FD1F3950F50E0551F629FF001729F98
:10151000BB27F00DB11D639FAA27F00DB11DAA1FB7
:10152000649F6627B00DA11D661F829F2227B00D04
:10153000A11D621F739FB00DA11D621F839FA00D8F
:10154000611D221F749F3327A00D611D231F849FDF
:10155000600D211D822F762F6A2F11249F57504036
:101560008AF0E1F088234AF0EE0FFF1FBB1F661FD1
:10157000771F881F91505040A9F79E3F510570F08A
:101580005CCFA6CF5F3FECF3983EDCF38695779572
:101590006795B795F795E7959F5FC1F7FE2B880F85
:1015A000911D9695879597F9089597FB092E072623
:1015B0000AD077FD04D02ED006D000201AF4709502
:1015C00061957F4F0895F6F7909581959F4F089507
:1015D000A1E21A2EAA1BBB1BFD010DC0AA1FBB1F37
:1015E000EE1FFF1FA217B307E407F50720F0A21BA9
:1015F000B30BE40BF50B661F771F881F991F1A9416
:1016000069F760957095809590959B01AC01BD013F
:10161000CF010895AA1BBB1B51E107C0AA1FBB1F26
:10162000A617B70710F0A61BB70B881F991F5A956E
:10163000A9F780959095BC01CD010895AF92BF9216
:10164000CF92DF92EF92FF920F931F93CF93DF938E
:10165000EC01688179818A819B8161157105810521
:10166000910521F464E279ED8BE597E02DE133EF0C
:1016700041E050E00E949B0B79018A0127EA31E4A6
:1016800040E050E00E947C0B5B016C01C801B70197
:101690002CEE34EF4FEF5FEF0E947C0B6A0D7B1D49
:1016A0008C1D9D1D97FF04C0615070408040904884
:1016B000688379838A839B837F77CB01DF91CF9186
:1016C0001F910F91FF90EF90DF90CF90BF90AF9060
:1016D00008950E941E0B08958FE792E00E941E0B52
:1016E0000895A0E0B0E080937F0290938002A093E1
:1016F0008102B09382020895629FD001739FF0012E
:10170000829FE00DF11D649FE00DF11D929FF00D91
:10171000839FF00D749FF00D659FF00D9927729FC8
:10172000B00DE11DF91F639FB00DE11DF91FBD0153
:10173000CF011124089597FB092E05260ED057FDE1
:1017400004D046DF0AD0001C38F4509540953095FF
:1017500021953F4F4F4F5F4F0895F6F79095809535
:10176000709561957F4F8F4F9F4F0895F894FFCFED
:101770005375636365737366756C205069636B2181
:101780002100507265737320627574746F6E206EE1
:101790006F77007C7C7C7C7C7C7C7C7C7C7C7C7C17
:1017A0007C7C7C006C6576656C203130006C6576E5
:1017B000656C203131006C6576656C203132006CCF
:1017C0006576656C203133006C6576656C2031344C
:1017D00000576F7720436F6E67726174732E2E21EE
:1017E000210047616D65204F766572004C65766516
:1017F0006C200001000000010300102D44000000D7
:10180000005CFF38445CFF43445CFF384400D02454
:10181000441FD512440000000000D0244400000002
:1018200000A4F0F643A4F0F643A4F0F64300000051
:101830000000901B4400000000A4F076430000006C
:1018400000000000000000394300003943000000A0
:101850000000004443000000000000444300005C1E
:101860004300003943000000005CCF244300000027
:10187000005CCF24430000000000000000000000D6
:101880000000000000000000000000C4430000C48D
:10189000430000C4430000C44300D0024400D0020F
:1018A0004400D0024400D0024400D0024400D002E0
:1018B0004400D0024400D0024457656C636F6D65EC
:1018C00020546F204C6F636B205069636B20507203
:1018D00065737320546F2053746172742121030067
:1018E00000DC430000C841BD02B202A7029C020115
:0418F00000000000F4
:00000001FF
