:100000000C9446000C9465000C9465000C946500FB
:100010000C9465000C9465000C9465000C946500CC
:100020000C9465000C9465000C9465000C946500BC
:100030000C9465000C94DF020C9465000C94650030
:100040000C9465000C9465000C9465000C9465009C
:100050000C9465000C9465000C9465000C9465008C
:100060000C9465000C9465000C9465000C9465007C
:100070000C9465000C9465000C9465000C9465006C
:100080000C9465000C9465000C94650011241FBE4F
:10009000CFEFD0E4DEBFCDBF11E0A0E0B1E0EAE4F5
:1000A000F2E100E00BBF02C007900D92AA36B10743
:1000B000D9F711E0AAE6B1E001C01D92A33EB10755
:1000C000E1F70E94DD050C9423090C94000018163A
:1000D00019065CF00895000021503040E1F74F5FB1
:1000E0005F4F4817590729F4089540E050E067E052
:1000F00073E09B01F0CF289A8BB9299A00002998C8
:1001000081E090E00E946700089528988BB9299AB1
:100110000000299882E090E00E94670008958131F4
:1001200020F481580E948500089581550E94850021
:1001300008951F93CF93DF93EB019881992311F4D6
:100140000BC0812F182F1F5F0E948F0089910E9482
:100150007B0088818823A9F7DF91CF911F910895B3
:1001600081E00E948500089584E690E00E94670087
:1001700088E30E94850086E00E9485008FE00E944F
:10018000850081E00E9485008AE090E00E9467007F
:100190000895EF92FF921F93CF93DF939C018130DC
:1001A000910559F08230910571F0009779F48091B2
:1001B0007B01882309F059C009C080917B01882305
:1001C00009F460C057C0109278015CC0A091720120
:1001D0000F2EF1EAEF2EF1E0FF2EF02D9701205FB8
:1001E0003F4FF7014AE351E060E070E0B1E0A63232
:1001F00028F48A2F90E0019742F002C0CB01AB2F88
:10020000840F951FEC01888180833196E217F307F4
:1002100011F0AF5FECCF11E0812F0E948F00F7014A
:1002200081917F010E947B001F5F1131A9F78091AE
:1002300072018F5F809372018532D1F41092720146
:1002400020E030E017C081E060E071E00E9499009A
:1002500081E10E948F0081E0809378011092770104
:100260008093790122E030E005C021E030E002C057
:1002700020E030E0822F932FDF91CF911F91FF90EC
:10028000EF900895809179018823E9F222E030E02F
:10029000F1CF442351F041E050E09A0102C0220F17
:1002A000331F6A95E2F7822B089521E030E0A9011F
:1002B00002C0440F551F6A95E2F7BA016095862384
:1002C000089590E002C0959587956A95E2F7817050
:1002D0000895EF92FF920F931F93E22EF32E042FB7
:1002E000152F04C0EB2EFA2E0F2F1E2F2E2D3F2D73
:1002F000402F512F0E9455089B01AC016E2D7F2D80
:10030000802F912FB22FA32FF42FE52F2115310528
:100310004105510539F71F910F91FF90EF90089516
:10032000EAE7F0E08081806E808308958FEE88B9DF
:10033000000086B160E00E946101882309F46DC06D
:1003400086B161E00E946101882309F468C086B12A
:1003500062E00E946101882309F463C086B163E012
:100360000E946101882309F45EC08FED88B9000006
:1003700086B160E00E946101882309F456C086B10D
:1003800061E00E946101882309F451C086B162E0F6
:100390000E946101882309F44CC086B163E00E9489
:1003A0006101882309F447C08FEB88B9000086B14A
:1003B00060E00E946101882309F43FC086B161E0DA
:1003C0000E9461018823D9F186B162E00E94610137
:1003D0008823B9F186B163E00E946101882399F115
:1003E0008FE788B9000086B160E00E946101882330
:1003F00061F186B161E00E946101882341F186B11B
:1004000062E00E946101882321F186B163E00E94CD
:100410006101882301F584E4089581E3089584E36C
:10042000089587E308958AE2089582E3089585E3B5
:10043000089588E3089580E3089583E3089586E3AB
:10044000089589E3089583E2089581E4089582E49C
:10045000089583E4089580E00895CF92DF92EF92AB
:10046000FF921F936B017C0120919D0130919E01B1
:1004700040919F015091A0010E94C906882309F470
:100480005CC011E0C701B60120E030E0A9010E9484
:10049000C906882309F410E0112331F4E1E9F0E002
:1004A00080818870808305C0E1E9F0E0808183600D
:1004B0008083C701B60128E539E344E75FE30E9482
:1004C000C90688233CF48FEF9FEF909399008093A7
:1004D000980027C0C701B60120E034E244EF56E49B
:1004E0000E94DB0718162CF41092990010929800C5
:1004F00018C0C701B60120E030E040E053E40E949C
:10050000DF079B01AC0160E074E284EF9AE40E9493
:10051000CD060E943507615070407093990060933A
:1005200098001092950010929400C0929D01D09274
:100530009E01E0929F01F092A0011F91FF90EF9029
:10054000DF90CF90089580E4809390008BE08093BB
:10055000910060E070E0CB010E942D02089510929E
:1005600090001092910008958BE0809381008DE7B8
:1005700090E0909389008093880082E080936F00E0
:100580001092850010928400809134019091350181
:10059000A0913601B091370180936B0190936C016B
:1005A000A0936D01B0936E018FB780688FBF0895DF
:1005B00010928100089581E080936A0108951F924E
:1005C0000F920FB60F920BB60F9211242F933F93F9
:1005D0004F935F936F937F938F939F93AF93BF934B
:1005E000EF93FF9380916B0190916C01A0916D014D
:1005F000B0916E010197A109B10980936B019093AD
:100600006C01A0936D01B0936E010097A105B10537
:1006100091F40E94DB028091340190913501A09108
:100620003601B091370180936B0190936C01A093D8
:100630006D01B0936E01FF91EF91BF91AF919F91CA
:100640008F917F916F915F914F913F912F910F907B
:100650000BBE0F900FBE0F901F9018956093340142
:1006600070933501809336019093370160936B014D
:1006700070936C0180936D0190936E0108950E94B8
:10068000D90860E170E00E9442088F5F08958617E4
:1006900097070CF4E4C09C01992314F4215F3F4FA9
:1006A0003595279535952795359527953595279532
:1006B000AC01421B530B461757070CF4D2C0A901DB
:1006C000440F551FFC01E41BF50BE617F7070CF46C
:1006D000CAC0A901440F551F420F531FFC01E41B60
:1006E000F50BE617F7070CF4C0C0A901440F551F1E
:1006F000440F551FFC01E41BF50BE617F7070CF43C
:10070000B6C0A901440F551F440F551F420F531F78
:10071000FC01E41BF50BE617F7070CF4AAC0A901CE
:10072000440F551F420F531F440F551FFC01E41B7C
:10073000F50BE617F7070CF49EC0A901440F551FEF
:10074000440F551F440F551FF901E41BF50BAF0172
:10075000480F591F461757070CF48FC0A901440FC3
:10076000551F440F551F440F551FFC01E41BF50B8B
:10077000E617F7070CF483C0A901440F551F440F77
:10078000551F440F551F420F531FFC01E41BF50B6F
:10079000E617F7070CF475C0F901EE0FFF1FA9016A
:1007A000440F551F440F551F440F551F4E0F5F1F19
:1007B000FC01E41BF50BE617F7070CF464C0E5EF4A
:1007C000FFEF2E9FA0012F9F500D3E9F500D112433
:1007D000480F591F461757070CF457C0A901440F7B
:1007E000551F420F531F440F551F440F551FFC0147
:1007F000E41BF50BE617F7070CF449C0E3EFFFEF36
:100800002E9FA0012F9F500D3E9F500D1124480F89
:10081000591F46175707ECF1A901440F551FFA015C
:10082000EE0FFF1FEE0FFF1FEE0FFF1F4E1B5F0BA4
:10083000480F591F4617570774F1E1EFFFEF2E9F3E
:10084000A0012F9F500D3E9F500D11249A01280F9B
:10085000391F81E026173707FCF080E0089580E11A
:1008600008958FE008958EE008958DE008958CE05E
:1008700008958BE008958AE0089589E0089588E05E
:10088000089587E0089586E0089585E0089584E05E
:10089000089583E0089582E00895813128F080E58D
:1008A00090E00E94470308958F3028F084EE90E096
:1008B0000E94470308958B3028F080E791E00E9462
:1008C00047030895873028F080EC91E00E944703A9
:1008D0000895833028F080E192E00E944703089554
:1008E00081E008959C01009721F08130910599F5F0
:1008F00005C080917801813099F535C0209178004C
:1009000030917900209375013093760180913901FF
:10091000622F732F0E944D048093380180917701DC
:10092000813009F51BC0805F0E948F0080913801E3
:100930008093700160E070E088EC91E40E942D02E9
:1009400021E030E00DC060E070E0CB010E942D029C
:1009500021E030E005C020E030E002C020E030E0DF
:10096000822F932F089580913801909170018917FB
:10097000D1F6E9CF803111F18F3011F18E3011F1C4
:100980008D3011F18C3011F18B3011F18A3011F171
:10099000893011F1883011F1873011F1863011F171
:1009A000853011F1843011F1833011F1823011F171
:1009B000813011F1882311F585E1089580E10895D2
:1009C0008FE008958EE008958DE008958CE00895FD
:1009D0008BE008958AE0089589E0089588E00895FD
:1009E00087E0089586E0089585E0089584E00895FD
:1009F00083E0089582E0089581E008958FE10895ED
:100A00000F931F93CF93DF939C018230910571F177
:100A1000833091053CF4009771F08130910509F025
:100A2000B5C00FC08330910509F446C084309105EC
:100A300009F0ACC020C080917801813009F0A6C0D7
:100A40003BC080917701813021F483E080933901AC
:100A50009DC09091710180913901981709F45CC093
:100A600080917B01882309F07FC026C080917B01A3
:100A7000882379F184C080917B01882309F44CC0DC
:100A80005FC0C0E0D0E001EB11E00E943F03C00F67
:100A9000D11F8883C0917301D09174012196D093A6
:100AA0007401C09373018091390190E0C817D90790
:100AB00064F320E030E063C080917101E1EBF1E08C
:100AC000E80FF11D80810E94BA0488B921E030E06E
:100AD00056C090917101E1EBF1E0E90FF11D8081C9
:100AE00020913801821709F042C0209139019217F4
:100AF00008F040C00E948F008EE50E947B0080912C
:100B00003801805F0E948F00809171018F5F809318
:100B1000710123E030E033C080917A01882369F5C8
:100B200081E061E171E00E94990081E163E271E09E
:100B30000E94990081E080937A0124E030E01FC098
:100B40000E94B00081E060E071E00E94990081E1C4
:100B50000E948F0010927101809139018F5F809304
:100B6000390125E030E00BC022E030E008C023E08E
:100B700030E005C023E030E002C024E030E0822F06
:100B8000932FDF91CF911F910F91089510927401CF
:100B90001092730180913901882309F072CF20E00F
:100BA00030E0EDCF0E942E030E94B4020E9490011B
:100BB0000E94A3020E94B4000895AF92BF92CF9208
:100BC000DF92EF92FF920F931F93DF93CF9300D0AA
:100BD00000D000D0CDB7DEB711B88FEF82B993EF58
:100BE00094B99CE095B987B918B88AB91BB864EF75
:100BF00071E080E090E022E330E040E050E00E94CD
:100C0000690122E330E040E050E00E9469017B018D
:100C10008C0164EF71E080E090E0A80197010E94F0
:100C20005508C22EA32ED42EB52E62E370E080E0CC
:100C300090E0A80197010E945508722F632F342F6E
:100C4000252FDE011196EFE5F1E086E001900D928F
:100C50008150E1F782E991E04FEF40939201FC016E
:100C60003196C0929301A182D282B382FC01359663
:100C7000C0929701A182D282B38289EC90E09093D6
:100C80009C0180939B01E7E8F1E040938701DF013D
:100C900011967093880111966C93119712963C935C
:100CA000129713962C93359670938C01618332833F
:100CB000238382E794E09093910180939001ECE785
:100CC000F1E040937C01DF01119670937D01119654
:100CD0006C93119712963C93129713962C9335961A
:100CE0007093810161833283238380E095E0909348
:100CF000860180938501C801B7010E94D2055E017B
:100D00000894A11CB11C0F2EF7E0CF2EDD24F02D8E
:100D1000CC0EDD1E80B1809561E00E946101809360
:100D20007B017501D7010D911D917D01F801258190
:100D300036814781508581819281A381B4812817B2
:100D400039074A075B0779F480810184F285E02D39
:100D5000992787FD90950995D8018C93F801158204
:100D6000168217821086F80185819681A781B08549
:100D70000196A11DB11D85839683A783B087EC14CE
:100D8000FD0481F680916A018823E1F310926A01E3
:100D9000C1CF9CD008F481E008950CD0D2C0CAD055
:100DA00040F0C1D030F021F45F3F19F0B3C05111D1
:100DB000FCC0B6C0D7D098F39923C9F35523B1F33B
:100DC000951B550BBB27AA2762177307840738F0BA
:100DD0009F5F5F4F220F331F441FAA1FA9F333D019
:100DE0000E2E3AF0E0E830D091505040E695001CCD
:100DF000CAF729D0FE2F27D0660F771F881FBB1F89
:100E0000261737074807AB07B0E809F0BB0B802D62
:100E1000BF01FF2793585F4F2AF09E3F510568F0AE
:100E200079C0C3C05F3FECF3983EDCF386957795BD
:100E30006795B795F7959F5FC9F7880F911D9695B0
:100E4000879597F90895E1E0660F771F881FBB1F0C
:100E5000621773078407BA0720F0621B730B840BB9
:100E6000BA0BEE1F88F7E095089504D06894B1118D
:100E70009CC008957FD088F09F5790F0B92F992794
:100E8000B751A0F0D1F0660F771F881F991F1AF095
:100E9000BA95C9F712C0B13081F086D0B1E008959B
:100EA00083C0672F782F8827B85F39F0B93FCCF31C
:100EB000869577956795B395D9F73EF4909580958B
:100EC000709561957F4F8F4F9F4F0895990F000840
:100ED000550FAA0BE0E8FEEF16161706E807F9070C
:100EE000C0F012161306E407F50798F0621B730BA7
:100EF000840B950B39F40A2661F0232B242B252B28
:100F000021F408950A2609F4A140A6958FEF811DCA
:100F1000811D089597F99F6780E870E060E008956B
:100F20009FEF80EC089500240A9416161706180601
:100F30000906089500240A941216130614060506DD
:100F40000895092E0394000C11F4882352F0BB0F6E
:100F500040F4BF2B11F460FF04C06F5F7F4F8F4FD1
:100F60009F4F089557FD9058440F551F59F05F3F0C
:100F700071F04795880F97FB991F61F09F3F79F0BB
:100F800087950895121613061406551FF2CF46953D
:100F9000F1DF08C0161617061806991FF1CF8695BF
:100FA0007105610508940895E894BB2766277727A3
:100FB000CB0197F908958ADF08F48FEF08950BD0DD
:100FC000C0CFB1DF28F0B6DF18F0952309F0A2CF2B
:100FD000A7CF1124EACFC6DFA0F3959FD1F3950FD9
:100FE00050E0551F629FF001729FBB27F00DB11DAD
:100FF000639FAA27F00DB11DAA1F649F6627B00D3D
:10100000A11D661F829F2227B00DA11D621F739F25
:10101000B00DA11D621F839FA00D611D221F749F33
:101020003327A00D611D231F849F600D211D822F7A
:10103000762F6A2F11249F5750408AF0E1F08823C1
:101040004AF0EE0FFF1FBB1F661F771F881F9150CE
:101050005040A9F79E3F510570F05CCFA6CF5F3F8F
:10106000ECF3983EDCF3869577956795B795F79501
:10107000E7959F5FC1F7FE2B880F911D9695879589
:1010800097F9089597FB092E07260AD077FD04D01B
:101090002ED006D000201AF4709561957F4F0895E8
:1010A000F6F7909581959F4F0895A1E21A2EAA1BFD
:1010B000BB1BFD010DC0AA1FBB1FEE1FFF1FA21708
:1010C000B307E407F50720F0A21BB30BE40BF50B05
:1010D000661F771F881F991F1A9469F7609570958E
:1010E000809590959B01AC01BD01CF010895AA1B8D
:1010F000BB1B51E107C0AA1FBB1FA617B70710F003
:10110000A61BB70B881F991F5A95A9F78095909534
:10111000BC01CD010895AF92BF92CF92DF92EF92C2
:10112000FF920F931F93CF93DF93EC016881798136
:101130008A819B81611571058105910521F464E225
:1011400079ED8BE597E02DE133EF41E050E00E942F
:10115000080979018A0127EA31E440E050E00E9461
:10116000E9085B016C01C801B7012CEE34EF4FEFC9
:101170005FEF0E94E9086A0D7B1D8C1D9D1D97FF86
:1011800004C06150704080409048688379838A83AE
:101190009B837F77CB01DF91CF911F910F91FF90C0
:1011A000EF90DF90CF90BF90AF9008950E948B0892
:1011B000089585E691E00E948B080895A0E0B0E0D4
:1011C0008093650190936601A0936701B0936801D5
:1011D0000895629FD001739FF001829FE00DF11D81
:1011E000649FE00DF11D929FF00D839FF00D749FA1
:1011F000F00D659FF00D9927729FB00DE11DF91F4D
:10120000639FB00DE11DF91FBD01CF0111240895A9
:1012100097FB092E05260ED057FD04D046DF0AD0D5
:10122000001C38F450954095309521953F4F4F4F15
:101230005F4F0895F6F790958095709561957F4F73
:0A1240008F4F9F4F0895F894FFCFE1
:10124A007C7C7C7C7C7C7C7C7C7C7C7C7C7C7C7CD4
:10125A00005375636365737366756C205069636BBD
:10126A00212100507265737320627574746F6E2049
:10127A006E6F770001000000010357656C636F6DA4
:10128A006520546F204C6F636B205069636B20504C
:10129A007265737320546F205374617274212192A2
:0A12AA000187017C01010000000033
:00000001FF
