:100000000C9446000C9465000C9465000C946500FB
:100010000C9465000C9465000C9465000C946500CC
:100020000C9465000C9465000C9465000C946500BC
:100030000C9465000C945D020C9465000C946500B2
:100040000C9465000C9465000C9465000C9465009C
:100050000C9465000C9465000C9465000C9465008C
:100060000C9465000C9465000C9465000C9465007C
:100070000C9465000C9465000C9465000C9465006C
:100080000C9465000C9465000C94650011241FBE4F
:10009000CFEFD0E4DEBFCDBF11E0A0E0B1E0EAEFEA
:1000A000F9E000E00BBF02C007900D92A631B10746
:1000B000D9F711E0A6E1B1E001C01D92A132B1076C
:1000C000E1F70E94CE020C94FB040C940000181679
:1000D00019065CF00895000021503040E1F74F5FB1
:1000E0005F4F4817590729F4089540E050E067E052
:1000F00073E09B01F0CF289A8BB9299A00002998C8
:1001000081E090E00E946700089528988BB9299AB1
:100110000000299882E090E00E94670008958131F4
:1001200020F481580E948500089581550E94850021
:10013000089581E00E94850008951F93CF93DF9377
:10014000182FEB010E9499008881882369F0812F84
:1001500001C0812F182F1F5F0E948F0089910E947C
:100160007B0088818823A9F7DF91CF911F910895A3
:1001700084E690E00E94670088E30E94850086E0A4
:100180000E9485008FE00E94850081E00E9485002A
:100190008AE090E00E9467000895442351F041E016
:1001A00050E09A0102C0220F331F6A95E2F7822BBA
:1001B000089521E030E0A90102C0440F551F6A955F
:1001C000E2F7BA0160958623089590E002C0959504
:1001D00087956A95E2F781700895EF92FF920F93E9
:1001E0001F93E22EF32E042F152F04C0EB2EFA2EB0
:1001F0000F2F1E2F2E2D3F2D402F512F0E94D9043F
:100200009B01AC016E2D7F2D802F912FB22FA32F3C
:10021000F42FE52F211531054105510539F71F91BF
:100220000F91FF90EF9008958FEE88B9000086B18E
:1002300060E00E94E500882309F46DC086B161E0AA
:100240000E94E500882309F468C086B162E00E943C
:10025000E500882309F463C086B163E00E94E500ED
:10026000882309F45EC08FED88B9000086B160E094
:100270000E94E500882309F456C086B161E00E941F
:10028000E500882309F451C086B162E00E94E500D0
:10029000882309F44CC086B163E00E94E5008823FE
:1002A00009F447C08FEB88B9000086B160E00E9476
:1002B000E500882309F43FC086B161E00E94E500B3
:1002C0008823D9F186B162E00E94E5008823B9F164
:1002D00086B163E00E94E500882399F18FE788B931
:1002E000000086B160E00E94E500882361F186B1DC
:1002F00061E00E94E500882341F186B162E00E943E
:10030000E500882321F186B163E00E94E50088239F
:1003100001F584E4089581E3089584E3089587E373
:1003200008958AE2089582E3089585E3089588E3B5
:10033000089580E3089583E3089586E3089589E3AB
:10034000089583E2089581E4089582E4089583E4A2
:10035000089580E00895CF92DF92EF92FF921F936D
:100360006B017C0120911D0130911E0140911F0104
:10037000509120010E946003882309F45CC011E0C1
:10038000C701B60120E030E0A9010E946003882384
:1003900009F410E0112331F4E1E9F0E08081887084
:1003A000808305C0E1E9F0E0808183608083C7013C
:1003B000B60128E539E344E75FE30E946003882340
:1003C0003CF48FEF9FEF909399008093980027C0A3
:1003D000C701B60120E034E244EF56E40E94720403
:1003E00018162CF4109299001092980018C0C701AA
:1003F000B60120E030E040E053E40E9476049B0127
:10040000AC0160E074E284EF9AE40E9464030E940D
:10041000CC036150704070939900609398001092E3
:10042000950010929400C0921D01D0921E01E0929E
:100430001F01F09220011F91FF90EF90DF90CF906D
:10044000089580E4809390008BE08093910060E0B9
:1004500070E0CB010E94AB010895109290001092C1
:10046000910008958BE0809381008DE790E0909358
:1004700089008093880082E080936F00109285004D
:10048000109284008091110190911201A0911301AA
:10049000B09114018093170190931801A093190152
:1004A000B0931A018FB780688FBF089510928100B2
:1004B000089581E08093160108951F920F920FB660
:1004C0000F920BB60F9211242F933F934F935F938C
:1004D0006F937F938F939F93AF93BF93EF93FF930C
:1004E0008091170190911801A0911901B0911A0102
:1004F0000197A109B1098093170190931801A09366
:100500001901B0931A010097A105B10591F40E9459
:1005100059028091110190911201A0911301B091A3
:1005200014018093170190931801A0931901B093BF
:100530001A01FF91EF91BF91AF919F918F917F91A0
:100540006F915F914F913F912F910F900BBE0F9044
:100550000FBE0F901F9018956093110170931201B8
:100560008093130190931401609317017093180105
:100570008093190190931A0108950E94B80081E0B8
:1005800060E071E00E949D0081E10E948F0008956B
:10059000EAE7F0E08081806E808308950F931F93D7
:1005A00011B88FEF82B993E094B99CEF95B987B9F0
:1005B00018B88AB91BB80E94C8020E94BD02E8E7B9
:1005C000F0E017E0B8E0A9E07AE06BE05CE04DE035
:1005D0003EE02FE08081918190931C0180931B016C
:1005E00003E08132900718F02093150165C002E006
:1005F0008F3E900718F0309315015EC002E08D3BEE
:10060000900718F04093150157C002E08B3890070F
:1006100018F05093150150C002E08732900718F08F
:100620006093150149C001E0853F900718F0709371
:10063000150142C001E0833C900718F0A09315011A
:100640003BC001E08139900718F0B093150134C028
:1006500001E08F35900718F0109315012DC001E0CF
:100660008D32900720F086E08093150125C08B3FE6
:10067000910520F005E0009315011EC0893C91050D
:1006800020F084E08093150117C08739910520F090
:1006900003E00093150110C08536910520F082E03B
:1006A0008093150109C08630910520F001E0009388
:1006B000150102C0109215018091150188B98ACFE9
:1006C0009CD008F481E008950CD0D2C0CAD040F08C
:1006D000C1D030F021F45F3F19F0B3C05111FCC01C
:1006E000B6C0D7D098F39923C9F35523B1F3951B1E
:1006F000550BBB27AA2762177307840738F09F5F43
:100700005F4F220F331F441FAA1FA9F333D00E2EB1
:100710003AF0E0E830D091505040E695001CCAF71E
:1007200029D0FE2F27D0660F771F881FBB1F2617E3
:1007300037074807AB07B0E809F0BB0B802DBF01B6
:10074000FF2793585F4F2AF09E3F510568F079C00C
:10075000C3C05F3FECF3983EDCF3869577956795D1
:10076000B795F7959F5FC9F7880F911D9695879567
:1007700097F90895E1E0660F771F881FBB1F621786
:1007800073078407BA0720F0621B730B840BBA0B44
:10079000EE1F88F7E095089504D06894B1119CC0CD
:1007A00008957FD088F09F5790F0B92F9927B751BF
:1007B000A0F0D1F0660F771F881F991F1AF0BA9525
:1007C000C9F712C0B13081F086D0B1E0089583C07E
:1007D000672F782F8827B85F39F0B93FCCF386951B
:1007E00077956795B395D9F73EF490958095709578
:1007F00061957F4F8F4F9F4F0895990F0008550FB8
:10080000AA0BE0E8FEEF16161706E807F907C0F096
:1008100012161306E407F50798F0621B730B840B9E
:10082000950B39F40A2661F0232B242B252B21F478
:1008300008950A2609F4A140A6958FEF811D811D18
:10084000089597F99F6780E870E060E008959FEF52
:1008500080EC089500240A94161617061806090657
:10086000089500240A941216130614060506089526
:10087000092E0394000C11F4882352F0BB0F40F4AE
:10088000BF2B11F460FF04C06F5F7F4F8F4F9F4FEE
:10089000089557FD9058440F551F59F05F3F71F070
:1008A0004795880F97FB991F61F09F3F79F08795D7
:1008B0000895121613061406551FF2CF4695F1DF60
:1008C00008C0161617061806991FF1CF86957105F0
:1008D000610508940895E894BB2766277727CB0124
:1008E00097F908958ADF08F48FEF08950BD0C0CFF1
:1008F000B1DF28F0B6DF18F0952309F0A2CFA7CF1B
:100900001124EACFC6DFA0F3959FD1F3950F50E0F5
:10091000551F629FF001729FBB27F00DB11D639FB1
:10092000AA27F00DB11DAA1F649F6627B00DA11D57
:10093000661F829F2227B00DA11D621F739FB00DFD
:10094000A11D621F839FA00D611D221F749F33276D
:10095000A00D611D231F849F600D211D822F762F06
:100960006A2F11249F5750408AF0E1F088234AF003
:10097000EE0FFF1FBB1F661F771F881F915050404F
:10098000A9F79E3F510570F05CCFA6CF5F3FECF317
:10099000983EDCF3869577956795B795F795E7953B
:1009A0009F5FC1F7FE2B880F911D9695879597F94C
:1009B0000895A1E21A2EAA1BBB1BFD010DC0AA1FA0
:1009C000BB1FEE1FFF1FA217B307E407F50720F0B8
:1009D000A21BB30BE40BF50B661F771F881F991F33
:1009E0001A9469F760957095809590959B01AC017C
:0A09F000BD01CF010895F894FFCF78
:1009FA007C7C7C7C7C7C7C7C7C7C7C7C7C7C7C7C2D
:060A0A00000100000007DE
:00000001FF
