:100000000C9446000C9465000C9465000C946500FB
:100010000C9465000C9465000C9465000C946500CC
:100020000C9465000C9465000C9465000C946500BC
:100030000C9465000C94DF020C9465000C94650030
:100040000C9465000C9465000C9465000C9465009C
:100050000C9465000C9465000C9465000C9465008C
:100060000C9465000C9465000C9465000C9465007C
:100070000C9465000C9465000C9465000C9465006C
:100080000C9465000C9465000C94650011241FBE4F
:10009000CFEFD0E4DEBFCDBF11E0A0E0B1E0E4E0FF
:1000A000F3E100E00BBF02C007900D92A636B10746
:1000B000D9F711E0A6E6B1E001C01D92A03EB1075C
:1000C000E1F70E943A060C9480090C94000018167F
:1000D00019065CF00895000021503040E1F74F5FB1
:1000E0005F4F4817590729F4089540E050E067E052
:1000F00073E09B01F0CF289A8BB9299A00002998C8
:1001000081E090E00E946700089528988BB9299AB1
:100110000000299882E090E00E94670008958131F4
:1001200020F481580E948500089581550E94850021
:1001300008951F93CF93DF93EB019881992311F4D6
:100140000BC0812F182F1F5F0E948F0089910E9482
:100150007B0088818823A9F7DF91CF911F910895B3
:1001600081E00E948500089584E690E00E94670087
:1001700088E30E94850086E00E9485008FE00E944F
:10018000850081E00E9485008AE090E00E9467007F
:100190000895EF92FF921F93CF93DF939C018130DC
:1001A000910559F08230910571F0009779F48091B2
:1001B0007701882309F059C009C08091770188230D
:1001C00009F460C057C0109274015CC0A0916E0128
:1001D0000F2EFEE9EF2EF1E0FF2EF02D9701205FAC
:1001E0003F4FF70146E351E060E070E0B1E0A63236
:1001F00028F48A2F90E0019742F002C0CB01AB2F88
:10020000840F951FEC01888180833196E217F307F4
:1002100011F0AF5FECCF11E0812F0E948F00F7014A
:1002200081917F010E947B001F5F1131A9F78091AE
:100230006E018F5F80936E018532D1F410926E0152
:1002400020E030E017C081E066E071E00E94990094
:1002500081E10E948F0081E080937401109273010C
:100260008093750122E030E005C021E030E002C05B
:1002700020E030E0822F932FDF91CF911F91FF90EC
:10028000EF900895809175018823E9F222E030E033
:10029000F1CF442351F041E050E09A0102C0220F17
:1002A000331F6A95E2F7822B089521E030E0A9011F
:1002B00002C0440F551F6A95E2F7BA016095862384
:1002C000089590E002C0959587956A95E2F7817050
:1002D0000895EF92FF920F931F93E22EF32E042FB7
:1002E000152F04C0EB2EFA2E0F2F1E2F2E2D3F2D73
:1002F000402F512F0E94B2089B01AC016E2D7F2D23
:10030000802F912FB22FA32FF42FE52F2115310528
:100310004105510539F71F910F91FF90EF90089516
:10032000EAE7F0E08081806E808308958FEE88B9DF
:10033000000086B160E00E946101882309F46DC06D
:1003400086B161E00E946101882309F468C086B12A
:1003500062E00E946101882309F463C086B163E012
:100360000E946101882309F45EC08FED88B9000006
:1003700086B160E00E946101882309F456C086B10D
:1003800061E00E946101882309F451C086B162E0F6
:100390000E946101882309F44CC086B163E00E9489
:1003A0006101882309F447C08FEB88B9000086B14A
:1003B00060E00E946101882309F43FC086B161E0DA
:1003C0000E9461018823D9F186B162E00E94610137
:1003D0008823B9F186B163E00E946101882399F115
:1003E0008FE788B9000086B160E00E946101882330
:1003F00061F186B161E00E946101882341F186B11B
:1004000062E00E946101882321F186B163E00E94CD
:100410006101882301F584E4089581E3089584E36C
:10042000089587E308958AE2089582E3089585E3B5
:10043000089588E3089580E3089583E3089586E3AB
:10044000089589E3089583E2089581E4089582E49C
:10045000089583E4089580E00895CF92DF92EF92AB
:10046000FF921F936B017C0120919A0130919B01B7
:1004700040919C0150919D010E942607882309F418
:100480005CC011E0C701B60120E030E0A9010E9484
:100490002607882309F410E0112331F4E1E9F0E0A4
:1004A00080818870808305C0E1E9F0E0808183600D
:1004B0008083C701B60128E539E344E75FE30E9482
:1004C000260788233CF48FEF9FEF90939900809349
:1004D000980027C0C701B60120E034E244EF56E49B
:1004E0000E94380818162CF4109299001092980067
:1004F00018C0C701B60120E030E040E053E40E949C
:100500003C089B01AC0160E074E284EF9AE40E9435
:100510002A070E949207615070407093990060937F
:1005200098001092950010929400C0929A01D09277
:100530009B01E0929C01F0929D011F91FF90EF9032
:10054000DF90CF90089580E4809390008BE08093BB
:10055000910060E070E0CB010E942D02089510929E
:1005600090001092910008958BE0809381008DE7B8
:1005700090E0909389008093880082E080936F00E0
:1005800010928500109284008091000190910101E9
:10059000A0910201B09103018093670190936801DB
:1005A000A0936901B0936A018FB780688FBF0895E7
:1005B00010928100089581E08093660108951F9252
:1005C0000F920FB60F920BB60F9211242F933F93F9
:1005D0004F935F936F937F938F939F93AF93BF934B
:1005E000EF93FF938091670190916801A091690159
:1005F000B0916A010197A109B109809367019093B5
:100600006801A0936901B0936A010097A105B10543
:1006100091F40E94DB028091000190910101A09170
:100620000201B09103018093670190936801A09348
:100630006901B0936A01FF91EF91BF91AF919F91D2
:100640008F917F916F915F914F913F912F910F907B
:100650000BBE0F900FBE0F901F9018956093000176
:1006600070930101809302019093030160936701ED
:10067000709368018093690190936A0108950E94C4
:10068000360960E170E00E949F088F5F0895861729
:1006900097070CF4E4C09C01992314F4215F3F4FA9
:1006A0003595279535952795359527953595279532
:1006B000AC01421B530B461757070CF4D2C0A901DB
:1006C000440F551FFC01E41BF50BE617F7070CF46C
:1006D000CAC0A901440F551F420F531FFC01E41B60
:1006E000F50BE617F7070CF4C0C0A901440F551F1E
:1006F000440F551FFC01E41BF50BE617F7070CF43C
:10070000B6C0A901440F551F440F551F420F531F78
:10071000FC01E41BF50BE617F7070CF4AAC0A901CE
:10072000440F551F420F531F440F551FFC01E41B7C
:10073000F50BE617F7070CF49EC0A901440F551FEF
:10074000440F551F440F551FF901E41BF50BAF0172
:10075000480F591F461757070CF48FC0A901440FC3
:10076000551F440F551F440F551FFC01E41BF50B8B
:10077000E617F7070CF483C0A901440F551F440F77
:10078000551F440F551F420F531FFC01E41BF50B6F
:10079000E617F7070CF475C0F901EE0FFF1FA9016A
:1007A000440F551F440F551F440F551F4E0F5F1F19
:1007B000FC01E41BF50BE617F7070CF464C0E5EF4A
:1007C000FFEF2E9FA0012F9F500D3E9F500D112433
:1007D000480F591F461757070CF457C0A901440F7B
:1007E000551F420F531F440F551F440F551FFC0147
:1007F000E41BF50BE617F7070CF449C0E3EFFFEF36
:100800002E9FA0012F9F500D3E9F500D1124480F89
:10081000591F46175707ECF1A901440F551FFA015C
:10082000EE0FFF1FEE0FFF1FEE0FFF1F4E1B5F0BA4
:10083000480F591F4617570774F1E1EFFFEF2E9F3E
:10084000A0012F9F500D3E9F500D11249A01280F9B
:10085000391F81E026173707FCF080E0089580E11A
:1008600008958FE008958EE008958DE008958CE05E
:1008700008958BE008958AE0089589E0089588E05E
:10088000089587E0089586E0089585E0089584E05E
:10089000089583E0089582E00895813128F080E58D
:1008A00090E00E94470308958F3028F084EE90E096
:1008B0000E94470308958B3028F080E791E00E9462
:1008C00047030895873028F080EC91E00E944703A9
:1008D0000895833028F080E192E00E944703089554
:1008E00081E008959C01009729F08130910509F07D
:1008F00046C006C080917401813009F045C047C0F0
:100900002091780030917900209371013093720129
:1009100080910501622F732F0E944D048093040182
:1009200080917301813099F52DC0805F0E948F0006
:100930008091040180936C0190916D01EEEAF1E0E9
:10094000E90FF11D9081891749F460E070E08CEDAA
:1009500093E40E942D0221E030E016C060E070E0D8
:1009600088EC91E40E942D0221E030E00DC060E0AF
:1009700070E0CB010E942D0221E030E005C020E0B4
:1009800030E002C020E030E0822F932F0895809164
:10099000040190916C01891741F6E9CF803111F182
:1009A0008F3011F18E3011F18D3011F18C3011F149
:1009B0008B3011F18A3011F1893011F1883011F149
:1009C000873011F1863011F1853011F1843011F149
:1009D000833011F1823011F1813011F1882311F54A
:1009E00085E1089580E108958FE008958EE00895EF
:1009F0008DE008958CE008958BE008958AE00895D5
:100A000089E0089588E0089587E0089586E00895D4
:100A100085E0089584E0089583E0089582E00895D4
:100A200081E008958FE10895EF92FF920F931F9355
:100A3000CF93DF939C018230910589F1833091053A
:100A40003CF4009789F08130910509F0FCC012C098
:100A50008430910549F1843091050CF44CC0853007
:100A6000910509F0F0C026C080917401813009F031
:100A7000EAC041C080917301813021F483E080930A
:100A80000501E1C090916D0180910501981709F46D
:100A900062C080917701882309F0BEC02CC080918C
:100AA00077018823A9F1C6C080917701882309F4D2
:100AB00052C06BC080917701882309F066C01BC0CB
:100AC000C0E0D0E00EEA11E00E943F03C00FD11F4A
:100AD0008883C0916F01D09170012196D0937001ED
:100AE000C0936F018091050190E0C817D90764F3A6
:100AF00020E030E09FC080916D01EEEAF1E0E80F68
:100B0000F11D80810E94CE0488B921E030E092C0BE
:100B100090916D01EEEAF1E0E90FF11D80812091E5
:100B20000401821709F07BC020910501921708F09B
:100B300079C00E948F008EE50E947B0080910401A5
:100B4000805F0E948F0080916D018F5F80936D01A7
:100B500023E030E06FC080917601882309F065C002
:100B600081E00E948F0081E066E171E00E949900BF
:100B700081E166E271E00E94990081E08093760154
:100B80001092780124E030E055C0809178018823EC
:100B900009F04EC00E94B00081E066E071E00E9462
:100BA000990081E10E948F0010926D0180910501F2
:100BB0008F5F809305011092700110926F0188235E
:100BC00019F1C0E0D0E00EEA11E00F2EFFE6EF2EA3
:100BD000F1E0FF2EF02D0E943F03C00FD11F88834C
:100BE000F70180810E94CE0488B9C0916F01D09135
:100BF00070012196D0937001C0936F01809105011F
:100C000090E0C817D9073CF381E0809378011092F7
:100C1000760125E030E00EC022E030E00BC023E09A
:100C200030E008C023E030E005C024E030E002C03E
:100C300025E030E0822F932FDF91CF911F910F910C
:100C4000FF90EF9008951092700110926F018091C3
:100C50000501882309F034CF20E030E0EBCF0E947B
:100C60002E030E94B4020E9490010E94A3020E94DF
:100C7000B4000895AF92BF92CF92DF92EF92FF92AD
:100C80000F931F93DF93CF9300D000D000D0CDB748
:100C9000DEB711B88FEF82B993EF94B99CE095B9A4
:100CA00087B918B88AB91BB864EF71E080E090E0AA
:100CB00022E330E040E050E00E94690122E330E0AE
:100CC00040E050E00E9469017B018C0164EF71E01B
:100CD00080E090E0A80197010E94B208C22EA32EE6
:100CE000D42EB52E62E370E080E090E0A801970179
:100CF0000E94B208722F632F342F252FDE01119628
:100D0000EBE5F1E086E001900D928150E1F78FE88C
:100D100091E04FEF40938F01FC013196C09290011A
:100D2000A182D282B382FC013596C0929401A18245
:100D3000D282B38289EC90E09093990180939801DC
:100D4000E4E8F1E040938401DF011196709385019E
:100D500011966C93119712963C93129713962C93BD
:100D600035967093890161833283238382E794E00F
:100D700090938E0180938D01E9E7F1E04093790132
:100D8000DF01119670937A0111966C931197129668
:100D90003C93129713962C93359670937E01618342
:100DA0003283238384E195E09093830180938201D1
:100DB000C801B7010E942F065E010894A11CB11C56
:100DC0000F2EF7E0CF2EDD24F02DCC0EDD1E80B1EE
:100DD000809561E00E946101809377017501D701E0
:100DE0000D911D917D01F801258136814781508546
:100DF00081819281A381B481281739074A075B0753
:100E000079F480810184F285E02D992787FD909502
:100E10000995D8018C93F8011582168217821086E5
:100E2000F80185819681A781B0850196A11DB11D2C
:100E300085839683A783B087EC14FD0481F68091A7
:100E400066018823E1F310926601C1CF9CD008F4BB
:100E500081E008950CD0D2C0CAD040F0C1D030F0AB
:100E600021F45F3F19F0B3C05111FCC0B6C0D7D018
:100E700098F39923C9F35523B1F3951B550BBB2761
:100E8000AA2762177307840738F09F5F5F4F220F0E
:100E9000331F441FAA1FA9F333D00E2E3AF0E0E807
:100EA00030D091505040E695001CCAF729D0FE2F53
:100EB00027D0660F771F881FBB1F261737074807E5
:100EC000AB07B0E809F0BB0B802DBF01FF2793589B
:100ED0005F4F2AF09E3F510568F079C0C3C05F3F65
:100EE000ECF3983EDCF3869577956795B795F79583
:100EF0009F5FC9F7880F911D9695879597F908957B
:100F0000E1E0660F771F881FBB1F62177307840716
:100F1000BA0720F0621B730B840BBA0BEE1F88F725
:100F2000E095089504D06894B1119CC008957FD0D5
:100F300088F09F5790F0B92F9927B751A0F0D1F0C2
:100F4000660F771F881F991F1AF0BA95C9F712C04C
:100F5000B13081F086D0B1E0089583C0672F782F3B
:100F60008827B85F39F0B93FCCF3869577956795B8
:100F7000B395D9F73EF490958095709561957F4F24
:100F80008F4F9F4F0895990F0008550FAA0BE0E867
:100F9000FEEF16161706E807F907C0F0121613063B
:100FA000E407F50798F0621B730B840B950B39F47B
:100FB0000A2661F0232B242B252B21F408950A26E1
:100FC00009F4A140A6958FEF811D811D089597F921
:100FD0009F6780E870E060E008959FEF80EC0895DF
:100FE00000240A9416161706180609060895002408
:100FF0000A9412161306140605060895092E039482
:10100000000C11F4882352F0BB0F40F4BF2B11F4F5
:1010100060FF04C06F5F7F4F8F4F9F4F089557FD54
:101020009058440F551F59F05F3F71F04795880F56
:1010300097FB991F61F09F3F79F0879508951216ED
:1010400013061406551FF2CF4695F1DF08C0161699
:1010500017061806991FF1CF86957105610508944A
:101060000895E894BB2766277727CB0197F9089561
:101070008ADF08F48FEF08950BD0C0CFB1DF28F0DE
:10108000B6DF18F0952309F0A2CFA7CF1124EACF3D
:10109000C6DFA0F3959FD1F3950F50E0551F629FD7
:1010A000F001729FBB27F00DB11D639FAA27F00DC1
:1010B000B11DAA1F649F6627B00DA11D661F829FE8
:1010C0002227B00DA11D621F739FB00DA11D621FCD
:1010D000839FA00D611D221F749F3327A00D611DEA
:1010E000231F849F600D211D822F762F6A2F1124CC
:1010F0009F5750408AF0E1F088234AF0EE0FFF1F1F
:10110000BB1F661F771F881F91505040A9F79E3F55
:10111000510570F05CCFA6CF5F3FECF3983EDCF357
:10112000869577956795B795F795E7959F5FC1F792
:10113000FE2B880F911D9695879597F9089597FB3B
:10114000092E07260AD077FD04D02ED006D0002025
:101150001AF4709561957F4F0895F6F790958195F3
:101160009F4F0895A1E21A2EAA1BBB1BFD010DC0C3
:10117000AA1FBB1FEE1FFF1FA217B307E407F50747
:1011800020F0A21BB30BE40BF50B661F771F881F23
:10119000991F1A9469F760957095809590959B01B9
:1011A000AC01BD01CF010895AA1BBB1B51E107C0D3
:1011B000AA1FBB1FA617B70710F0A61BB70B881FE7
:1011C000991F5A95A9F780959095BC01CD01089576
:1011D000AF92BF92CF92DF92EF92FF920F931F9345
:1011E000CF93DF93EC01688179818A819B816115BE
:1011F00071058105910521F464E279ED8BE597E0B5
:101200002DE133EF41E050E00E94650979018A0148
:1012100027EA31E440E050E00E9446095B016C019E
:10122000C801B7012CEE34EF4FEF5FEF0E94460983
:101230006A0D7B1D8C1D9D1D97FF04C06150704081
:1012400080409048688379838A839B837F77CB0132
:10125000DF91CF911F910F91FF90EF90DF90CF9092
:10126000BF90AF9008950E94E808089581E691E04C
:101270000E94E8080895A0E0B0E080936101909397
:101280006201A0936301B09364010895629FD0014D
:10129000739FF001829FE00DF11D649FE00DF11D31
:1012A000929FF00D839FF00D749FF00D659FF00DE0
:1012B0009927729FB00DE11DF91F639FB00DE11DCD
:1012C000F91FBD01CF011124089597FB092E0526B2
:1012D0000ED057FD04D046DF0AD0001C38F45095DC
:1012E0004095309521953F4F4F4F5F4F0895F6F74A
:1012F00090958095709561957F4F8F4F9F4F089582
:04130000F894FFCF8F
:101304000100000001037C7C7C7C7C7C7C7C7C7CFC
:101314007C7C7C7C7C7C5375636365737366756CC1
:10132400205069636B215072657373204275747425
:101334006F6E204E6F7757656C636F6D6520546FC9
:10134400204C6F636B205069636B2050726573731C
:1013540020546F20537461727421218F01840179A8
:0613640001010000000081
:00000001FF
